:100000000C945D000C94C5060C949E060C9485001F
:100010000C9485000C9485000C9485000C9485004C
:100020000C9485000C9485000C9485000C9485003C
:100030000C9485000C94EC060C9485000C948500BF
:100040000C94FC050C9485000C946C060C944606EC
:100050000C9485000C9485000C9485000C9485000C
:100060000C9485000C9485000000000024002700FB
:100070002A0000000000250028002B0004040404CE
:100080000404040402020202020203030303030342
:10009000010204081020408001020408102001021F
:1000A00004081020000000080002010000030407FB
:1000B0000000000000000000A60711241FBECFEFC3
:1000C000D8E0DEBFCDBF21E0ACE3B1E001C01D92BE
:1000D000A53FB207E1F711E0A0E0B1E0E4E6F9E105
:1000E00002C005900D92AC33B107D9F710E0CDE511
:1000F000D0E004C02197FE010E94A40ACC35D107AC
:10010000C9F70E9413070C94B00C0C940000AF9236
:10011000BF92CF92DF92EF92FF920F931F93CF93F4
:10012000DF936C017B018B01040F151FEB015E0156
:10013000AE18BF08C017D10759F06991D601ED91EB
:10014000FC910190F081E02DC6010995892B79F78A
:10015000C501DF91CF911F910F91FF90EF90DF903C
:10016000CF90BF90AF900895FC01538D448D252F03
:1001700030E0842F90E0821B930B541710F0CF9641
:10018000089501970895FC01918D828D981761F073
:10019000A28DAE0FBF2FB11D5D968C91928D9F5F8A
:1001A0009F73928F90E008958FEF9FEF08952FB780
:1001B000F8948091500190915101A0915201B09119
:1001C00053012FBF80935C0190935D01A0935E016A
:1001D000B0935F0184E591E00E94C30097FF26C0C1
:1001E0002FB7F8948091500190915101A091520144
:1001F000B09153012FBF40915C0150915D0160911E
:100200005E0170915F01841B950BA60BB70B4091AB
:1002100058015091590160915A0170915B01841706
:100220009507A607B707B0F28FEF9FEF0895FC017F
:10023000918D828D981731F0828DE80FF11D858D9B
:1002400090E008958FEF9FEF0895FC01918D228D2E
:10025000892F90E0805C9F4F821B91098F739927B3
:10026000089584E591E00E94250121E0892B09F49D
:1002700020E0822F0895FC01A48DA80FB92FB11D95
:10028000A35ABF4F2C91848D90E001968F739927CC
:10029000848FA689B7892C93A089B1898C918370AA
:1002A00080648C93938D848D981306C00288F389A3
:1002B000E02D80818F7D80830895EF92FF920F93D0
:1002C0001F93CF93DF93EC0181E0888F9B8D8C8D02
:1002D00098131AC0E889F989808185FF15C09FB7F6
:1002E000F894EE89FF896083E889F98980818370B9
:1002F000806480839FBF81E090E0DF91CF911F9168
:100300000F91FF90EF900895F62E0B8D10E00F5F88
:100310001F4F0F731127E02E8C8D8E110CC00FB65E
:1003200007FCFACFE889F989808185FFF5CFCE01F6
:100330000E943B01F1CFEB8DEC0FFD2FF11DE35A35
:10034000FF4FF0829FB7F8940B8FEA89FB89808179
:100350008062CFCFCF93DF93EC01888D8823B9F0F3
:10036000AA89BB89E889F9898C9185FD03C08081C0
:1003700086FD0DC00FB607FCF7CF8C9185FFF2CF3D
:10038000808185FFEDCFCE010E943B01E9CFDF9157
:10039000CF91089590E0FC01EC55FF4F2491FC01B2
:1003A000E057FF4F3491FC01E458FF4FE491EE23F6
:1003B000C9F0222339F0233001F1A8F4213019F1DA
:1003C000223029F1F0E0EE0FFF1FEE58FF4FA5910C
:1003D000B4918FB7F894EC91611126C030953E230B
:1003E0003C938FBF08952730A9F02830C9F02430FE
:1003F00049F7809180008F7D03C0809180008F77C6
:1004000080938000DFCF84B58F7784BDDBCF84B548
:100410008F7DFBCF8091B0008F778093B000D2CFDB
:100420008091B0008F7DF9CF3E2BDACFCF93DF9351
:1004300090E0FC01E057FF4F249184589F4FFC014E
:1004400084918823D1F090E0880F991FFC01E8592E
:10045000FF4FA591B491FC01EE58FF4FC591D49187
:1004600061110EC09FB7F8948C91E22FE0958E2316
:100470008C932881E223E8839FBFDF91CF91089579
:100480008FB7F894EC91E22BEC938FBFF6CF0895E1
:10049000609140017091410180914201909143012E
:1004A00020E030E040E85FE30E946B096093400188
:1004B0007093410180934201909343010895FC01A0
:1004C00001900020E9F73197AF01481B590BBC019F
:1004D00084E591E00C9487008F929F92AF92BF9237
:1004E0000F931F93CF93DF93CDB7DEB7A1970FB6CE
:1004F000F894DEBF0FBECDBF19A2423008F44AE027
:100500008E010F5D1F4F842E912CB12CA12CA501C3
:1005100094010E94820AE62FB901CA01EA30F4F47C
:10052000E05DD801EE938D01232B242B252B79F749
:1005300090E080E0109719F0CD010E945F02A19633
:100540000FB6F894DEBF0FBECDBFDF91CF911F91E4
:100550000F91BF90AF909F908F900895E95CE1CF8D
:10056000FC0124813581232B39F421E0FB018081BA
:10057000882349F020E007C0808191810E94A00C6F
:1005800021E0892BB9F7822F08950F931F93CF9302
:10059000DF93EC0188819981009759F02A813B8192
:1005A0002617370730F081E0DF91CF911F910F912F
:1005B00008958B016F5F7F4F0E94CF0B009759F01A
:1005C000998388831B830A832C813D81232B59F7D0
:1005D000FC011082E8CF80E0E7CFCF93DF93EC01FE
:1005E00088819981009711F00E94460B1982188228
:1005F0001D821C821B821A82DF91CF910895CF93B6
:10060000DF93EC0170E060E00E94C502811105C03B
:10061000CE01DF91CF910C94ED021D821C826CE221
:1006200071E088819981DF91CF910C94A90C9F9200
:10063000AF92BF92CF92DF92EF92FF920F931F93F0
:10064000CF93DF93EC016B015A0179012417350731
:1006500020F48B2D5901E42EF82E198218821B826A
:100660001A821D821C82CE010E94FF02D6011496BE
:100670000D911C91A016B10658F5E016F10608F48C
:100680008701D601ED91FC911197E00FF11F908049
:100690001082ED90FC90EA0CFB1CE114F10471F067
:1006A000F70101900020E9F731975F01AE18BF080C
:1006B000B501CE010E94C502811117C0CE010E9472
:1006C000ED02F60180819181080F191FD8019C92DB
:1006D000CE01DF91CF911F910F91FF90EF90DF90AE
:1006E000CF90BF90AF909F900895BD82AC82B7012C
:1006F000888199810E94A90CE4CFFC0180819181BD
:10070000009711F00C94460B08958F929F92AF9230
:10071000BF92CF92DF92EF92FF92F89460914001E6
:100720007091410180914201909143012DEC3CEC8C
:100730004CEC5DE30E94D70920E030E048E453E44C
:100740000E94D70920E030E040E752E40E9475089B
:1007500060933C0170933D0180933E0190933F0173
:10076000C0904401D09045010D2C000CEE08FF080C
:100770004AE0C701B601F7FE0DC06DE284E591E0E5
:100780000E945D0166277727CB016C197D098E09D0
:100790009F094AE00E946C028CE191E00E945F0296
:1007A000C0903C01D0903D01E0903E01F0903F01AF
:1007B000A7019601C701B6010E947D0A8823D1F0E6
:1007C0008EE191E00E945F028AE291E00E945F0266
:1007D0001092400110924101109242011092430187
:1007E0007894FF90EF90DF90CF90BF90AF909F9064
:1007F0008F90089546015701E894B7F82FEF3FEF27
:100800004FE75FE7C501B4010E947D0A81110DC069
:100810002FEF3FEF4FE75FE7C501B4010E940F08DC
:1008200018161CF482E291E0CDCF2FEF3FEF4FE797
:100830005FE4C701B6010E94780A18161CF486E22C
:1008400091E0C0CF2FEF3FEF4FE75FECC701B6015C
:100850000E940F0887FDF3CF20E030E0A901C70117
:10086000B6010E940F0887FF09C06DE284E591E0A0
:100870000E945D01F7FAF094F7F8F0942AE037ED62
:1008800043EA5BE3C701B6010E946B094B015C01BF
:100890000E94490A6B017C010E9414089B01AC0173
:1008A000C501B4010E946A094B015C014AE0C7011D
:1008B000B6010E946C026EE284E591E00E945D0147
:1008C00020E030E040E251E4C501B4010E94750827
:1008D0004B015C010E94490A6B01F12CE12C4AE0BA
:1008E000C701B6010E946C02C701B6010E9414083C
:1008F0009B01AC01C501B4010E946A0920E030E00F
:1009000040E251E40E9475080E94490A90E080E0AC
:100910004AE00E946C0258CFEF92FF920F931F9310
:10092000CF93DF93CDB7DEB762970FB6F894DEBFF3
:100930000FBECDBF1A8219821C821B821E821D82AD
:10094000CE0101960E94FF020E94D700ED80FE803A
:1009500097FD1DC08A309105D1F08F8318868FEFE7
:10096000E81AF80AB701CE0101960E94C502882351
:1009700059F329813A818D819E81BE01695F7F4F44
:10098000820F931F0E94A90CFE82ED82DDCFEF281B
:1009900061F009811A816CE270E0C8010E94950C37
:1009A0009C01201B310B892B11F42FEF3FEF50E0FE
:1009B00040E0BE016F5F7F4FCE0107960E94170394
:1009C0000D811E810115110561F0E980FA806CE24C
:1009D00070E0C7010E94950CAC014E195F09892B8C
:1009E00011F44FEF5FEF4F5F5F4F9801BE016F5FF4
:1009F0007F4FCE010D960E94170384E591E00E947F
:100A0000AA016DE271E0CE0107960E94B002882330
:100A100051F180E1809381001092800083E0809307
:100A2000480184ED90E390934701809346019093B1
:100A300087008093860083E18093810085E893E0BE
:100A400090934A018093490181E080936F0088E48C
:100A500092E090930101809300018091690083608E
:100A600080936900E89A60E371E0CE0107960E94E6
:100A7000B002882389F061E085E00E94160260E000
:100A800085E00E94CA0110926F00E89887E492E026
:100A9000909301018093000164E371E0CE01079619
:100AA0000E94B0028823D9F08D859E8510E000E079
:100AB000009721F00E94D307162F072FE12EF02E6A
:100AC000F0924501E092440161E085E00E94160247
:100AD000E114F104A1F560E085E00E94CA0168E339
:100AE00071E0CE0107960E94B002882379F08D85CF
:100AF0009E85009709F470C00E94D30761157105A7
:100B000009F06EC061E087E00E94CA01CE010D9637
:100B10000E947D03CE0107960E947D03CE010196BF
:100B20000E947D0362960FB6F894DEBF0FBECDBF64
:100B3000DF91CF911F910F91FF90EF9008958FEF6C
:100B4000E816F10411F461E0C7CFE9EAF0E0E491BE
:100B5000E33031F148F4E130C9F0E230E1F080E80F
:100B6000E816F10484F7B7CFE73031F1E83061F1EE
:100B7000E430A9F780918000806280938000812F0B
:100B8000902F90938B0080938A00A9CF84B58068C2
:100B900084BD17BDA4CF84B5806284BD18BD9FCF2E
:100BA00080918000806880938000812F902F9093A7
:100BB00089008093880093CF8091B00080688093F3
:100BC000B0001093B3008BCF8091B000806280930F
:100BD000B0001093B40083CF60E070E0CB018ECF03
:100BE0006130710509F092CF60E08DCF0E94310134
:100BF00081110C948C0408951F920F920FB60F92DE
:100C000011242F933F938F939F93AF93BF93809122
:100C1000500190915101A0915201B0915301309136
:100C20004F0123E0230F2D3758F50196A11DB11D6B
:100C300020934F018093500190935101A093520152
:100C4000B093530180914B0190914C01A0914D01C3
:100C5000B0914E010196A11DB11D80934B0190935F
:100C60004C01A0934D01B0934E01BF91AF919F9164
:100C70008F913F912F910F900FBE0F901F9018955D
:100C800026E8230F0296A11DB11DD2CF1F920F920D
:100C90000FB60F9211242F933F934F935F936F934F
:100CA0007F938F939F93AF93BF93EF93FF9384E5CD
:100CB00091E00E943B01FF91EF91BF91AF919F9115
:100CC0008F917F916F915F914F913F912F910F90F5
:100CD0000FBE0F901F9018951F920F920FB60F9294
:100CE00011242F938F939F93EF93FF93E0916401CF
:100CF000F09165018081E0916A01F0916B0182FDC4
:100D00001BC0908180916D018F5F8F7320916E0168
:100D1000821741F0E0916D01F0E0EC5AFE4F958FA3
:100D200080936D01FF91EF919F918F912F910F9083
:100D30000FBE0F901F9018958081F4CF1F920F92D5
:100D40000FB60F9211242F933F934F935F936F939E
:100D50007F938F939F93AF93BF93EF93FF93E09114
:100D60000201F09103010995FF91EF91BF91AF91BD
:100D70009F918F917F916F915F914F913F912F91B3
:100D80000F900FBE0F901F9018951F920F920FB6E5
:100D90000F9211242F933F934F935F936F937F9301
:100DA0008F939F93AF93BF93EF93FF93E0910001D5
:100DB000F09101010995FF91EF91BF91AF919F9142
:100DC0008F917F916F915F914F913F912F910F90F4
:100DD0000FBE0F901F9018951F920F920FB60F9293
:100DE00011242F933F934F935F936F937F938F9330
:100DF0009F93AF93BF93EF93FF93E0914901F091DD
:100E00004A010995FF91EF91BF91AF919F918F9109
:100E10007F916F915F914F913F912F910F900FBEF6
:100E20000F901F901895789484B5826084BD84B526
:100E3000816084BD85B5826085BD85B5816085BDD5
:100E400080916E00816080936E001092810080918D
:100E50008100826080938100809181008160809315
:100E60008100809180008160809380008091B1003A
:100E700084608093B1008091B00081608093B00065
:100E800080917A00846080937A0080917A008260F9
:100E900080937A0080917A00816080937A008091BB
:100EA0007A00806880937A001092C100E09164011A
:100EB000F091650182E08083E0916001F091610131
:100EC0001082E0916201F091630180E180831092D1
:100ED0006C01E0916801F091690186E08083E09106
:100EE0006601F0916701808180618083E0916601F5
:100EF000F0916701808188608083E0916601F091C4
:100F00006701808180688083E0916601F0916701CC
:100F100080818F7D808361E085E00E94160261E020
:100F200087E00E94160260E085E00E94CA0160E04E
:100F300087E00E94CA0160E082E00E9416020E94DF
:100F400031018823E1F30E948C04F9CFE4E5F1E05C
:100F50001382128288EE93E0A0E0B0E08483958350
:100F6000A683B7838EE091E09183808385EC90E047
:100F70009587848784EC90E09787868780EC90E063
:100F8000918B808B81EC90E0938B828B82EC90E054
:100F9000958B848B86EC90E0978B868B118E128ECE
:100FA000138E148E08951F93FC0199278827BC0186
:100FB000E89411911032E9F3193010F01E30C8F3A3
:100FC0001B3251F01D3249F4689406C00E94FA07A2
:100FD000610F711D811D911D119110531A30B0F3D5
:100FE0003EF490958095709561957F4F8F4F9F4F00
:100FF0001F910895592F482F372F262F660F771FDF
:10100000881F991F660F771F881F991F620F731F14
:10101000841F951F660F771F881F991F08950E94D0
:10102000510808F481E00895E89409C097FB3EF464
:1010300090958095709561957F4F8F4F9F4F992325
:10104000A9F0F92F96E9BB279395F69587957795A3
:101050006795B795F111F8CFFAF4BB0F11F460FF63
:101060001BC06F5F7F4F8F4F9F4F16C0882311F0BB
:1010700096E911C0772321F09EE8872F762F05C0CF
:10108000662371F096E8862F70E060E02AF09A956A
:10109000660F771F881FDAF7880F9695879597F95F
:1010A0000895990F0008550FAA0BE0E8FEEF1616F9
:1010B0001706E807F907C0F012161306E407F5074C
:1010C00098F0621B730B840B950B39F40A2661F0C0
:1010D000232B242B252B21F408950A2609F4A14063
:1010E000A6958FEF811D811D08950E9488080C949C
:1010F000F9080E94EB0838F00E94F20820F09523CE
:1011000011F00C94E2080C94E80811240C942D09B9
:101110000E940A0970F3959FC1F3950F50E0551F87
:10112000629FF001729FBB27F00DB11D639FAA273C
:10113000F00DB11DAA1F649F6627B00DA11D661F8B
:10114000829F2227B00DA11D621F739FB00DA11DAC
:10115000621F839FA00D611D221F749F3327A00D66
:10116000611D231F849F600D211D822F762F6A2F02
:1011700011249F5750409AF0F1F088234AF0EE0F67
:10118000FF1FBB1F661F771F881F91505040A9F794
:101190009E3F510580F00C94E2080C942D095F3FAE
:1011A000E4F3983ED4F3869577956795B795F795D0
:1011B000E7959F5FC1F7FE2B880F911D9695879548
:1011C00097F9089597F99F6780E870E060E00895C7
:1011D0009FEF80EC089500240A941616170618064F
:1011E0000906089500240A9412161306140605062B
:1011F0000895092E0394000C11F4882352F0BB0FBC
:1012000040F4BF2B11F460FF04C06F5F7F4F8F4F1E
:101210009F4F089557FD9058440F551F59F05F3F59
:1012200071F04795880F97FB991F61F09F3F79F008
:1012300087950895121613061406551FF2CF46958A
:10124000F1DF08C0161617061806991FF1CF86950C
:101250007105610508940895E894BB2766277727F0
:10126000CB0197F908952F923F924F925F926F9220
:101270007F928F929F92AF92BF92CF92DF92EF9226
:10128000FF920F931F93CF93DF93CDB7DEB7CA1BA7
:10129000DB0B0FB6F894DEBF0FBECDBF09942A88D2
:1012A000398848885F846E847D848C849B84AA847A
:1012B000B984C884DF80EE80FD800C811B81AA8107
:1012C000B981CE0FD11D0FB6F894DEBF0FBECDBFD2
:1012D000ED0108955058BB27AA270E9482090C945B
:1012E000F9080E94EB0838F00E94F20820F039F467
:1012F0009F3F19F426F40C94E8080EF4E095E7FB00
:101300000C94E208E92F0E940A0958F3BA17620701
:1013100073078407950720F079F4A6F50C942C093F
:101320000EF4E0950B2EBA2FA02D0B01B901900100
:101330000C01CA01A0011124FF27591B99F0593F44
:1013400050F4503E68F11A16F040A22F232F342F8C
:101350004427585FF3CF469537952795A795F040DA
:101360005395C9F77EF41F16BA0B620B730B840BEF
:10137000BAF09150A1F0FF0FBB1F661F771F881FA7
:10138000C2F70EC0BA0F621F731F841F48F48795FF
:1013900077956795B795F7959E3F08F0B0CF9395F1
:1013A000880F08F09927EE0F9795879508950E946A
:1013B000EB090C94F9080E94F20858F00E94EB081F
:1013C00040F029F45F3F29F00C94E20851110C948D
:1013D0002D090C94E8080E940A0968F39923B1F3D7
:1013E000552391F3951B550BBB27AA27621773074B
:1013F000840738F09F5F5F4F220F331F441FAA1FDF
:10140000A9F335D00E2E3AF0E0E832D0915050409A
:10141000E695001CCAF72BD0FE2F29D0660F771F48
:10142000881FBB1F261737074807AB07B0E809F02E
:10143000BB0B802DBF01FF2793585F4F3AF09E3FB3
:10144000510578F00C94E2080C942D095F3FE4F309
:10145000983ED4F3869577956795B795F7959F5FF6
:10146000C9F7880F911D9695879597F90895E1E042
:10147000660F771F881FBB1F621773078407BA07A1
:1014800020F0621B730B840BBA0BEE1F88F7E095FC
:1014900008950E94120988F09F5798F0B92F992754
:1014A000B751B0F0E1F0660F771F881F991F1AF04F
:1014B000BA95C9F714C0B13091F00E942C09B1E07F
:1014C00008950C942C09672F782F8827B85F39F07E
:1014D000B93FCCF3869577956795B395D9F73EF4E8
:1014E00090958095709561957F4F8F4F9F4F089590
:1014F0000E94510808F48FEF08950E945108880B4C
:10150000990B0895A1E21A2EAA1BBB1BFD010DC069
:10151000AA1FBB1FEE1FFF1FA217B307E407F507A3
:1015200020F0A21BB30BE40BF50B661F771F881F7F
:10153000991F1A9469F760957095809590959B0115
:10154000AC01BD01CF010895EE0FFF1F0590F4918E
:10155000E02D09940F931F93CF93DF938230910571
:1015600010F482E090E0E091F301F091F40130E0BA
:1015700020E0B0E0A0E0309799F42115310509F49E
:101580004AC0281B390B24303105D8F58A819B814C
:101590006115710589F1FB0193838283FE0111C0FE
:1015A000408151810281138148175907E0F04817A3
:1015B000590799F4109761F012960C9312971396AD
:1015C0001C933296CF01DF91CF911F910F91089517
:1015D0000093F3011093F401F4CF2115310551F07C
:1015E0004217530738F0A901DB019A01BD01DF0161
:1015F000F801C1CFEF01F9CF9093F4018093F3018B
:10160000CDCFFE01E20FF31F819391932250310958
:1016100039832883D7CF2091F1013091F201232B18
:1016200041F420910601309107013093F20120939B
:10163000F10120910401309105012115310541F49A
:101640002DB73EB74091080150910901241B350B7D
:10165000E091F101F091F201E217F307A0F42E1BE3
:101660003F0B2817390778F0AC014E5F5F4F241706
:10167000350748F04E0F5F1F5093F2014093F10180
:10168000819391939FCFF0E0E0E09CCFCF93DF93E5
:101690000097E9F0FC01329713821282A091F301C6
:1016A000B091F401ED0130E020E01097A1F4208129
:1016B0003181820F931F2091F1013091F20128179F
:1016C000390709F061C0F093F201E093F101DF9175
:1016D000CF910895EA01CE17DF07E8F54A815B81D3
:1016E0009E0141155105B1F7E901FB83EA83499158
:1016F0005991C40FD51FEC17FD0761F480819181CA
:101700000296840F951FE9019983888382819381D2
:101710009B838A83F0E0E0E012968D919C91139771
:101720000097B9F52D913C911197CD010296820F4A
:10173000931F2091F1013091F2012817390739F6F2
:10174000309751F51092F4011092F301B093F20129
:10175000A093F101BCCFD383C28340815181840F18
:10176000951FC817D90761F44E5F5F4F8881998133
:10177000480F591F518340838A819B8193838283C1
:101780002115310509F0B0CFF093F401E093F30196
:101790009ECFFD01DC01C0CF13821282D7CFB0E013
:1017A000A0E0E5EDFBE00C9435098C01009751F4C5
:1017B000CB010E94AA0A8C01C801CDB7DEB7E0E1D7
:1017C0000C945109FC01E60FF71F9C0122503109CE
:1017D000E217F30708F49DC0D901CD91DC91119770
:1017E000C617D70798F0C530D10530F3CE0104975E
:1017F0008617970708F3C61BD70B2297C193D1937F
:101800006D937C93CF010E94460BD6CF5B01AC1A3F
:10181000BD0A4C018C0E9D1EA091F301B091F40104
:10182000512C412CF12CE12C109731F58091F101D4
:101830009091F2018815990509F05CC0461657068B
:1018400008F058C08091040190910501009741F47F
:101850008DB79EB74091080150910901841B950BEB
:10186000E817F90708F055C0F093F201E093F10191
:10187000F90171836083A0CF8D919C91119712968D
:101880006C90129713967C901397A815B90559F58B
:101890006C0142E0C40ED11CCA14DB0420F1AC017F
:1018A0004A195B09DA011296159780F062827382F9
:1018B00051834083D9016D937C93E114F10471F05D
:1018C000D7011396FC93EE93129776CF22968C0F46
:1018D0009D1FF90191838083F301EFCFF093F40111
:1018E000E093F30169CF4816590608F42C017D01F5
:1018F000D3019ACFCB010E94AA0A7C01009749F03C
:10190000AE01B8010E948C0CC8010E94460B8701F1
:1019100053CF10E000E050CFFB01DC0102C001908A
:101920000D9241505040D8F70895FC0181918617DF
:1019300021F08823D9F7992708953197CF01089589
:10194000FB01DC018D91019080190110D9F3990BF5
:101950000895FB01DC0101900D920020E1F708954C
:04196000F894FFCF29
:10196400470247020000F5018000000000005D010D
:101974008700B400AA012501C30017012C006E6181
:101984006E00696E66006F7666000D0A00474F00B0
:0C199400454E440050574D00444952009D
:00000001FF
