:100000000C945D000C9409090C94E2080C94850092
:100010000C9485000C9485000C9485000C9485004C
:100020000C9485000C9485000C9485000C9485003C
:100030000C9485000C9430090C9485000C94850078
:100040000C9498080C9485000C9466080C94400855
:100050000C9485000C9485000C9485000C9485000C
:100060000C9485000C9485000000000024002700FB
:100070002A0000000000250028002B0004040404CE
:100080000404040402020202020203030303030342
:10009000010204081020408001020408102001021F
:1000A00004081020000000080002010000030407FB
:1000B0000000000000000000570911241FBECFEF10
:1000C000D8E0DEBFCDBF22E0ACE3B1E001C01D92BD
:1000D000A733B207E1F711E0A0E0B1E0E4EBFEE105
:1000E00002C005900D92AC33B107D9F710E0CDE511
:1000F000D0E004C02197FE010E944C0DCC35D10701
:10010000C9F70E94E9090C94580F0C940000AF92B3
:10011000BF92CF92DF92EF92FF920F931F93CF93F4
:10012000DF936C017B018B01040F151FEB015E0156
:10013000AE18BF08C017D10759F06991D601ED91EB
:10014000FC910190F081E02DC6010995892B79F78A
:10015000C501DF91CF911F910F91FF90EF90DF903C
:10016000CF90BF90AF900895FC01538D448D252F03
:1001700030E0842F90E0821B930B541710F0CF9641
:10018000089501970895FC01918D828D981761F073
:10019000A28DAE0FBF2FB11D5D968C91928D9F5F8A
:1001A0009F73928F90E008958FEF9FEF08952FB780
:1001B000F8948091E7019091E801A091E901B09154
:1001C000EA012FBF8093520190935301A0935401F1
:1001D000B09355018AE491E00E94C30097FF26C0C6
:1001E0002FB7F8948091E7019091E801A091E9017F
:1001F000B091EA012FBF409152015091530160919B
:10020000540170915501841B950BA60BB70B4091BF
:100210004E0150914F01609150017091510184172E
:100220009507A607B707B0F28FEF9FEF0895FC017F
:10023000918D828D981731F0828DE80FF11D858D9B
:1002400090E008958FEF9FEF0895FC01918D228D2E
:10025000892F90E0805C9F4F821B91098F739927B3
:1002600008958AE491E00E94250121E0892B09F498
:1002700020E0822F0895FC01A48DA80FB92FB11D95
:10028000A35ABF4F2C91848D90E001968F739927CC
:10029000848FA689B7892C93A089B1898C918370AA
:1002A00080648C93938D848D981306C00288F389A3
:1002B000E02D80818F7D80830895EF92FF920F93D0
:1002C0001F93CF93DF93EC0181E0888F9B8D8C8D02
:1002D00098131AC0E889F989808185FF15C09FB7F6
:1002E000F894EE89FF896083E889F98980818370B9
:1002F000806480839FBF81E090E0DF91CF911F9168
:100300000F91FF90EF900895F62E0B8D10E00F5F88
:100310001F4F0F731127E02E8C8D8E110CC00FB65E
:1003200007FCFACFE889F989808185FFF5CFCE01F6
:100330000E943B01F1CFEB8DEC0FFD2FF11DE35A35
:10034000FF4FF0829FB7F8940B8FEA89FB89808179
:100350008062CFCFCF93DF93EC01888D8823B9F0F3
:10036000AA89BB89E889F9898C9185FD03C08081C0
:1003700086FD0DC00FB607FCF7CF8C9185FFF2CF3D
:10038000808185FFEDCFCE010E943B01E9CFDF9157
:10039000CF91089590E0FC01EC55FF4F2491FC01B2
:1003A000E057FF4F3491FC01E458FF4FE491EE23F6
:1003B000C9F0222339F0233001F1A8F4213019F1DA
:1003C000223029F1F0E0EE0FFF1FEE58FF4FA5910C
:1003D000B4918FB7F894EC91611126C030953E230B
:1003E0003C938FBF08952730A9F02830C9F02430FE
:1003F00049F7809180008F7D03C0809180008F77C6
:1004000080938000DFCF84B58F7784BDDBCF84B548
:100410008F7DFBCF8091B0008F778093B000D2CFDB
:100420008091B0008F7DF9CF3E2BDACFCF93DF9351
:1004300090E0FC01E057FF4F249184589F4FFC014E
:1004400084918823D1F090E0880F991FFC01E8592E
:10045000FF4FA591B491FC01EE58FF4FC591D49187
:1004600061110EC09FB7F8948C91E22FE0958E2316
:100470008C932881E223E8839FBFDF91CF91089579
:100480008FB7F894EC91E22BEC938FBFF6CF1F93CC
:10049000CF93DF93182FEB0161E00E9416022097A3
:1004A00039F460E0812FDF91CF911F910C94CA0144
:1004B000CF3FD10511F461E0F5CFE12FF0E0EC552D
:1004C000FF4FE491E33031F140F4E130B1F0E2303C
:1004D000E1F0C038D1057CF7E4CFE73029F1E8300E
:1004E00059F1E430B1F78091800080628093800000
:1004F000D0938B00C0938A0004C084B5806884BD0B
:10050000C7BDDF91CF911F91089584B5806284BDEE
:10051000C8BDF7CF80918000806880938000D09321
:100520008900C0938800EDCF8091B00080688093EF
:10053000B000C093B300E5CF8091B000806280939B
:10054000B000C093B400DDCF089560913C0170917C
:100550003D0180913E0190913F0120E030E040E874
:100560005FE30E940C0C60933C0170933D0180930B
:100570003E0190933F0108953F924F925F926F9298
:100580007F928F929F92AF92BF92CF92DF92EF9223
:10059000FF920F931F93CF93DF93CDB7DEB72E97C4
:1005A0000FB6F894DEBF0FBECDBF80913102882315
:1005B00009F42DC18FB7F8942091E7013091E8013B
:1005C0004091E9015091EA0129873A874B875C877E
:1005D0008FBF8091190290911A02A0911B02B091D5
:1005E0001C0249855A856B857C85481B590B6A0B13
:1005F0007B0B8091250290912602A0912702B09159
:100600002802481759076A077B0708F400C1E091E0
:100610001302F091140280819181A281B3818983B8
:100620009A83AB83BC83E0911702F09118029C017E
:10063000AD0160817181828193810E940B0C4B011D
:100640005C012091210230912202409123025091BD
:10065000240269817A818B819C810E940B0C6B0141
:100660007C012091070230910802409109025091CB
:100670000A02C501B4010E94160B20911D0230919F
:100680001E0240911F02509120020E940C0C2B016F
:100690003C0140921D0250921E0260921F02709215
:1006A00020023090320231101AC0209103023091A2
:1006B00004024091050250910602C701B6010E9452
:1006C000160B9B01AC01C301B2010E940B0C60939D
:1006D0001D0270931E0280931F029093200240908F
:1006E0001D0250901E0260901F0270902002009127
:1006F0002D0210912E0290912F029E87A091300220
:10070000AD879801492F5A2FC301B2010E94200DD5
:1007100018160CF0D3C0C801AE85BD8580931D02AC
:1007200090931E02A0931F02B0932002332009F47D
:10073000DCC02091030230910402409105025091E7
:100740000602C501B4010E94160B4B015C01209109
:100750000B0230910C0240910D0250910E02C70124
:10076000B6010E94160B9B01AC0160911D027091B5
:100770001E0280911F02909120020E940B0CA50185
:1007800094010E940C0C6B017C019B01AC01B8012F
:100790008E859D850E94B00A87FD16C000912902B2
:1007A00010912A0290912B029E87A0912C02AD8776
:1007B0009801492F5A2FB601C7010E94B00A87FD40
:1007C00003C08601EE86FD86E0911502F0911602C7
:1007D000C801AE85BD8580839183A283B3832981BF
:1007E0003A814B815C812093210230932202409315
:1007F00023025093240289859A85AB85BC8580931A
:10080000190290931A02A0931B02B0931C0220E0DD
:1008100030E04FE753E46091EF017091F001809177
:10082000F1019091F2010E94200D181664F480E00D
:1008300090E0AFE7B3E48093EF019093F001A093D1
:10084000F101B093F20120E030E0A9016091EF01E5
:100850007091F0018091F1019091F2010E94B00A33
:1008600087FF08C01092EF011092F0011092F10181
:100870001092F2016091EF017091F0018091F1010D
:100880009091F2010E94EA0C85E02E960FB6F89442
:10089000DEBF0FBECDBFDF91CF911F910F91FF90B3
:1008A000EF90DF90CF90BF90AF909F908F907F9010
:1008B0006F905F904F903F900C94470220912902D7
:1008C00030912A0240912B0250912C022D833E83BD
:1008D0004F835887C301B2010E94B00A87FF26CF19
:1008E0008D819E81AF81B88519CF812C912C5401C7
:1008F0002ECFFC0101900020E9F73197AF01481B92
:10090000590BBC018AE491E00C9487008F929F926E
:10091000AF92BF920F931F93CF93DF93CDB7DEB704
:10092000A1970FB6F894DEBF0FBECDBF19A242301B
:1009300008F44AE08E010F5D1F4F842E912CB12CDC
:10094000A12CA50194010E942A0DE62FB901CA012C
:10095000EA30F4F4E05DD801EE938D01232B242BD3
:10096000252B79F790E080E0109719F0CD010E94D7
:100970007904A1960FB6F894DEBF0FBECDBFDF910C
:10098000CF911F910F91BF90AF909F908F9008953E
:10099000E95CE1CF4F925F926F927F928F929F922C
:1009A000AF92BF92CF92DF92EF92FF920F931F937D
:1009B000CF936B017C01742EAC019B010E94250D2D
:1009C000882399F08CE191E0CF911F910F91FF90D6
:1009D000EF90DF90CF90BF90AF909F908F907F90DF
:1009E0006F905F904F900C94790446015701E89402
:1009F000B7F82FEF3FEF4FE75FE7C501B4010E9463
:100A0000250D81110DC02FEF3FEF4FE75FE7C501C7
:100A1000B4010E94B00A18161CF480E291E0D4CF11
:100A20002FEF3FEF4FE75FE4C701B6010E94200DB3
:100A300018161CF484E291E0C7CF2FEF3FEF4FE789
:100A40005FECC701B6010E94B00A87FDF3CF20E03A
:100A500030E0A901C701B6010E94B00A10E000E031
:100A600087FF0AC06DE28AE491E00E945D018C017B
:100A7000F7FAF094F7F8F094C0E060E070E080E0FE
:100A80009FE37C1641F020E030E040E251E40E9418
:100A9000780CCF5FF6CFA70196010E940C0C2B01BA
:100AA0003C010E94F10C4B015C014AE00E9486046B
:100AB0007C01E00EF11ECC23C1F1C501B4010E94FE
:100AC000B50A9B01AC01C301B2010E940B0C4B01A2
:100AD0005C016EE28AE491E00E945D01E80EF91E7D
:100AE000C15018F120E030E040E251E4C501B4010A
:100AF0000E94160B2B013C010E94F10C4B01B12C02
:100B0000A12C4AE0C501B4010E948604E80EF91E3A
:100B1000C501B4010E94B50A9B01AC01C301B20139
:100B20000E940B0C4B015C01DBCFC701CF911F91E1
:100B30000F91FF90EF90DF90CF90BF90AF909F907C
:100B40008F907F906F905F904F900895F894609190
:100B50003C0170913D0180913E0190913F012DEC4F
:100B60003CEC4CEC5DE30E94780C20E030E048E483
:100B700053E40E94780C20E030E040E752E40E9409
:100B8000160B6093F3017093F4018093F501909339
:100B9000F6010E94BC026091EB017091EC01809122
:100BA000ED019091EE0142E00E94CA0488E291E0DA
:100BB0000E9479046091F3017091F4018091F50134
:100BC0009091F60142E00E94CA048AE291E00E94FC
:100BD000790410923C0110923D0110923E01109256
:100BE0003F0178940895FC0124813581232B39F449
:100BF00021E0FB018081882349F020E007C080814B
:100C000091810E94480F21E0892BB9F7822F089526
:100C10000F931F93CF93DF93EC0188819981009705
:100C200059F02A813B812617370730F081E0DF91A8
:100C3000CF911F910F9108958B016F5F7F4F0E949D
:100C4000770E009759F0998388831B830A832C8140
:100C50003D81232B59F7FC011082E8CF80E0E7CFDC
:100C6000CF93DF93EC0188819981009711F00E9466
:100C7000EE0D198218821D821C821B821A82DF915E
:100C8000CF910895CF93DF93EC0170E060E00E9474
:100C90000806811105C0CE01DF91CF910C9430067A
:100CA0001D821C826CE271E088819981DF91CF9175
:100CB0000C94510F9F92AF92BF92CF92DF92EF921E
:100CC000FF920F931F93CF93DF93EC016B015A01B7
:100CD00079012417350720F48B2D5901E42EF82EC5
:100CE000198218821B821A821D821C82CE010E94E8
:100CF0004206D60114960D911C91A016B10658F526
:100D0000E016F10608F48701D601ED91FC911197E8
:100D1000E00FF11F90801082ED90FC90EA0CFB1C1C
:100D2000E114F10471F0F70101900020E9F7319727
:100D30005F01AE18BF08B501CE010E9408068111FF
:100D400017C0CE010E943006F60180819181080F04
:100D5000191FD8019C92CE01DF91CF911F910F9165
:100D6000FF90EF90DF90CF90BF90AF909F9008954D
:100D7000BD82AC82B701888199810E94510FE4CF76
:100D8000FC0180819181009711F00C94EE0D089583
:100D90008F929F92AF92BF92CF92DF92EF92FF928B
:100DA0000F931F93CF93DF93CDB7DEB762970FB644
:100DB000F894DEBF0FBECDBF1A8219821C821B823F
:100DC0001E821D82CE0101960E9442060E94D7001B
:100DD0000D811E8197FD1CC08A309105C9F08F835B
:100DE00018860F5F1F4FB801CE0101960E940806BA
:100DF000882361F329813A818D819E81BE01695FDB
:100E00007F4F820F931F0E94510F1E830D83DECFF1
:100E1000012B61F009811A816CE270E0C8010E9427
:100E20003D0F9C01201B310B892B11F42FEF3FEF5D
:100E300050E040E0BE016F5F7F4FCE0107960E94F9
:100E40005A060D811E810115110561F0E980FA80B5
:100E50006CE270E0C7010E943D0FAC014E195F09C2
:100E6000892B11F44FEF5FEF4F5F5F4F9801BE0189
:100E70006F5F7F4FCE010D960E945A068AE491E083
:100E80000E94AA016DE271E0CE0107960E94F3056F
:100E9000882309F47AC080E1809381001092800059
:100EA00083E08093420184ED90E39093410180932D
:100EB0004001909387008093860083E180938100B6
:100EC00086EA95E0909344018093430181E080930A
:100ED0006F0085EA92E09093010180930001809178
:100EE0006900836080936900E89A809131028111E2
:100EF00049C0E0911502F0911602C080D180E280D5
:100F0000F380C0921D02D0921E02E0921F02F09266
:100F10002002E0911302F091140280819181A2815C
:100F2000B3818093210290932202A0932302B09375
:100F3000240280902D0290902E02A0902F02B0905B
:100F40003002A5019401C701B6010E94200D1816B8
:100F50004CF480921D0290921E02A0921F02B09249
:100F6000200210C08090290290902A02A0902B02AB
:100F7000B0902C02A5019401C701B6010E94B00AED
:100F800087FDE7CF81E08093310260E371E0CE011D
:100F900007960E94F305882371F070E060E085E019
:100FA0000E94470210926F00E89884EA92E09093C2
:100FB00001018093000164E371E0CE0107960E9475
:100FC000F3058823B1F08D859E85009709F44AC00A
:100FD0000E94740A0E94B70A6093EF017093F001B7
:100FE0008093F1019093F2010E94EA0C85E00E9447
:100FF000470268E371E0CE0107960E94F30588235B
:1010000091F08D859E85009789F10E94740A0E9457
:10101000B70A6093EB017093EC018093ED0190931C
:10102000EE010E94BC02CE010D960E94C006CE01C8
:1010300007960E94C006CE0101960E94C0066296E5
:101040000FB6F894DEBF0FBECDBFDF91CF911F91D9
:101050000F91FF90EF90DF90CF90BF90AF909F9057
:101060008F90089560E070E0CB01B4CF60E070E055
:10107000CB01CDCF0E94310181110C94C806089597
:101080001F920F920FB60F9211242F933F934F93FD
:101090005F936F937F938F939F93AF93BF93EF93E0
:1010A000FF938AE491E00E943B01FF91EF91BF9191
:1010B000AF919F918F917F916F915F914F913F91F0
:1010C0002F910F900FBE0F901F9018951F920F92A7
:1010D0000FB60F9211242F938F939F93EF93FF934B
:1010E000E0915A01F0915B018081E0916001F09103
:1010F000610182FD1BC09081809163018F5F8F73BE
:1011000020916401821741F0E0916301F0E0E65B19
:10111000FE4F958F80936301FF91EF919F918F9187
:101120002F910F900FBE0F901F9018958081F4CFD4
:101130001F920F920FB60F9211242F933F938F930C
:101140009F93AF93BF938091E7019091E801A091A5
:10115000E901B091EA013091490123E0230F2D37D5
:1011600058F50196A11DB11D209349018093E70117
:101170009093E801A093E901B093EA0180914501C1
:1011800090914601A0914701B09148010196A11D9F
:10119000B11D8093450190934601A0934701B09300
:1011A0004801BF91AF919F918F913F912F910F90E7
:1011B0000FBE0F901F90189526E8230F0296A11DD1
:1011C000B11DD2CF1F920F920FB60F9211242F9301
:1011D0003F934F935F936F937F938F939F93AF93BF
:1011E000BF93EF93FF93E0910201F0910301099502
:1011F000FF91EF91BF91AF919F918F917F916F91EF
:101200005F914F913F912F910F900FBE0F901F90C4
:1012100018951F920F920FB60F9211242F933F93A0
:101220004F935F936F937F938F939F93AF93BF93EE
:10123000EF93FF93E0910001F09101010995FF9177
:10124000EF91BF91AF919F918F917F916F915F913E
:101250004F913F912F910F900FBE0F901F901895B7
:101260001F920F920FB60F9211242F933F934F931B
:101270005F936F937F938F939F93AF93BF93EF93FE
:10128000FF93E0914301F09144010995FF91EF91A3
:10129000BF91AF919F918F917F916F915F914F918E
:1012A0003F912F910F900FBE0F901F901895EAE479
:1012B000F1E01382128288EE93E0A0E0B0E0848334
:1012C0009583A683B7838EE091E09183808385EC3C
:1012D00090E09587848784EC90E09787868780EC00
:1012E00090E0918B808B81EC90E0938B828B82ECF1
:1012F00090E0958B848B86EC90E0978B868B118E9B
:10130000128E138E148EE7EFF1E08FEE91E0978F3F
:10131000868F83EF91E0958F848F8BEE91E091A380
:1013200080A312AE12AA13AA14AA15AA80E090E014
:10133000AFE7B3E486AB97ABA0AFB1AF84E690E084
:10134000A0E0B0E086A797A7A0ABB1AB118E108E3E
:1013500081E090E0938F828F83AF8DEA93E7A7E9D6
:10136000B1E480839183A283B38345E757ED61E9BC
:1013700071E44483558366837783108611861286D1
:10138000138684879587A687B7878BEB98E5A9EEA8
:10139000BFE3808B918BA28BB38B148A158A168A3C
:1013A000178A2FB7F8948091E7019091E801A091F6
:1013B000E901B091EA012FBF46A557A560A971A91F
:1013C000841B950BA60BB70B82A393A3A4A3B5A371
:1013D0000895789484B5826084BD84B5816084BDAD
:1013E00085B5826085BD85B5816085BD80916E00C3
:1013F000816080936E0010928100809181008260F4
:101400008093810080918100816080938100809130
:1014100080008160809380008091B100846080931F
:10142000B1008091B00081608093B00080917A001B
:10143000846080937A0080917A00826080937A0041
:1014400080917A00816080937A0080917A00806830
:1014500080937A001092C100E0915A01F0915B01F3
:1014600082E08083E0915601F09157011082E09173
:101470005801F091590180E1808310926201E0915E
:101480005E01F0915F0186E08083E0915C01F09164
:101490005D01808180618083E0915C01F0915D015C
:1014A000808188608083E0915C01F0915D018081A2
:1014B00080688083E0915C01F0915D0180818F7D87
:1014C000808361E085E00E94160260E085E00E9472
:1014D000CA0160E082E00E9416020E943101882366
:1014E000E1F30E94C806F9CF1F93FC0199278827D2
:1014F000BC01E89411911032E9F3193010F01E305C
:10150000C8F31B3251F01D3249F4689406C00E94A2
:101510009B0A610F711D811D911D119110531A308D
:10152000B0F33EF490958095709561957F4F8F4F05
:101530009F4F1F910895592F482F372F262F660F41
:10154000771F881F991F660F771F881F991F620FCB
:10155000731F841F951F660F771F881F991F08959B
:101560000E94F20A08F481E00895E89409C097FB0C
:101570003EF490958095709561957F4F8F4F9F4F6A
:101580009923A9F0F92F96E9BB279395F6958795AE
:1015900077956795B795F111F8CFFAF4BB0F11F471
:1015A00060FF1BC06F5F7F4F8F4F9F4F16C0882318
:1015B00011F096E911C0772321F09EE8872F762F4E
:1015C00005C0662371F096E8862F70E060E02AF08F
:1015D0009A95660F771F881FDAF7880F969587957B
:1015E00097F90895990F0008550FAA0BE0E8FEEF50
:1015F00016161706E807F907C0F012161306E407D7
:10160000F50798F0621B730B840B950B39F40A26CF
:1016100061F0232B242B252B21F408950A2609F4AD
:10162000A140A6958FEF811D811D08950E94290B71
:101630000C949A0B0E948C0B38F00E94930B20F0B4
:10164000952311F00C94830B0C94890B11240C94AA
:10165000CE0B0E94AB0B70F3959FC1F3950F50E03A
:10166000551F629FF001729FBB27F00DB11D639F54
:10167000AA27F00DB11DAA1F649F6627B00DA11DFA
:10168000661F829F2227B00DA11D621F739FB00DA0
:10169000A11D621F839FA00D611D221F749F332710
:1016A000A00D611D231F849F600D211D822F762FA9
:1016B0006A2F11249F5750409AF0F1F088234AF086
:1016C000EE0FFF1FBB1F661F771F881F91505040F2
:1016D000A9F79E3F510580F00C94830B0C94CE0B20
:1016E0005F3FE4F3983ED4F3869577956795B79579
:1016F000F795E7959F5FC1F7FE2B880F911D969593
:10170000879597F9089597F99F6780E870E060E002
:1017100008959FEF80EC089500240A94161617068A
:1017200018060906089500240A94121613061406D2
:1017300005060895092E0394000C11F4882352F035
:10174000BB0F40F4BF2B11F460FF04C06F5F7F4FED
:101750008F4F9F4F089557FD9058440F551F59F0D4
:101760005F3F71F04795880F97FB991F61F09F3F8E
:1017700079F087950895121613061406551FF2CFB7
:101780004695F1DF08C0161617061806991FF1CF07
:1017900086957105610508940895E894BB2766272E
:1017A0007727CB0197F908952F923F924F925F923E
:1017B0006F927F928F929F92AF92BF92CF92DF9261
:1017C000EF92FF920F931F93CF93DF93CDB7DEB7C6
:1017D000CA1BDB0B0FB6F894DEBF0FBECDBF09945A
:1017E0002A88398848885F846E847D848C849B84B1
:1017F000AA84B984C884DF80EE80FD800C811B81BF
:10180000AA81B981CE0FD11D0FB6F894DEBF0FBEED
:10181000CDBFED0108955058BB27AA270E94230C85
:101820000C949A0B0E948C0B38F00E94930B20F0C2
:1018300039F49F3F19F426F40C94890B0EF4E095CB
:10184000E7FB0C94830BE92F0E94AB0B58F3BA17FC
:10185000620773078407950720F079F4A6F50C94C6
:10186000CD0B0EF4E0950B2EBA2FA02D0B01B90174
:1018700090010C01CA01A0011124FF27591B99F006
:10188000593F50F4503E68F11A16F040A22F232F12
:10189000342F4427585FF3CF469537952795A79562
:1018A000F0405395C9F77EF41F16BA0B620B730B09
:1018B000840BBAF09150A1F0FF0FBB1F661F771F7A
:1018C000881FC2F70EC0BA0F621F731F841F48F42F
:1018D000879577956795B795F7959E3F08F0B0CFB8
:1018E0009395880F08F09927EE0F9795879508959F
:1018F0000E948C0C0C949A0B0E94930B58F00E943F
:101900008C0B40F029F45F3F29F00C94830B5111AC
:101910000C94CE0B0C94890B0E94AB0B68F39923AB
:10192000B1F3552391F3951B550BBB27AA276217DB
:101930007307840738F09F5F5F4F220F331F441FE8
:10194000AA1FA9F335D00E2E3AF0E0E832D091501C
:101950005040E695001CCAF72BD0FE2F29D0660F09
:10196000771F881FBB1F261737074807AB07B0E84C
:1019700009F0BB0B802DBF01FF2793585F4F3AF052
:101980009E3F510578F00C94830B0C94CE0B5F3F77
:10199000E4F3983ED4F3869577956795B795F795D8
:1019A0009F5FC9F7880F911D9695879597F90895C0
:1019B000E1E0660F771F881FBB1F6217730784075C
:1019C000BA0720F0621B730B840BBA0BEE1F88F76B
:1019D000E09508950E94F10C6894B1110C94CE0B1F
:1019E00008950E94B30B88F09F5798F0B92F99275C
:1019F000B751B0F0E1F0660F771F881F991F1AF0FA
:101A0000BA95C9F714C0B13091F00E94CD0BB1E086
:101A100008950C94CD0B672F782F8827B85F39F085
:101A2000B93FCCF3869577956795B395D9F73EF492
:101A300090958095709561957F4F8F4F9F4F08953A
:101A40000E94F20A08F48FEF08950E94F20A880BB0
:101A5000990B0895A1E21A2EAA1BBB1BFD010DC014
:101A6000AA1FBB1FEE1FFF1FA217B307E407F5074E
:101A700020F0A21BB30BE40BF50B661F771F881F2A
:101A8000991F1A9469F760957095809590959B01C0
:101A9000AC01BD01CF010895EE0FFF1F0590F49139
:101AA000E02D09940F931F93CF93DF93823091051C
:101AB00010F482E090E0E0913502F091360230E0DF
:101AC00020E0B0E0A0E0309799F42115310509F449
:101AD0004AC0281B390B24303105D8F58A819B81F7
:101AE0006115710589F1FB0193838283FE0111C0A9
:101AF000408151810281138148175907E0F048174E
:101B0000590799F4109761F012960C931297139657
:101B10001C933296CF01DF91CF911F910F910895C1
:101B20000093350210933602F4CF2115310551F0A0
:101B30004217530738F0A901DB019A01BD01DF010B
:101B4000F801C1CFEF01F9CF9093360280933502AF
:101B5000CDCFFE01E20FF31F819391932250310903
:101B600039832883D7CF2091330230913402232B3D
:101B700041F4209106013091070130933402209303
:101B8000330220910401309105012115310541F402
:101B90002DB73EB74091080150910901241B350B28
:101BA000E0913302F0913402E217F307A0F42E1B08
:101BB0003F0B2817390778F0AC014E5F5F4F2417B1
:101BC000350748F04E0F5F1F5093340240933302A5
:101BD000819391939FCFF0E0E0E09CCFCF93DF9390
:101BE0000097E9F0FC01329713821282A09135022E
:101BF000B0913602ED0130E020E01097A1F4208191
:101C00003181820F931F20913302309134022817C3
:101C1000390709F061C0F0933402E0933302DF9199
:101C2000CF910895EA01CE17DF07E8F54A815B817D
:101C30009E0141155105B1F7E901FB83EA83499102
:101C40005991C40FD51FEC17FD0761F48081918174
:101C50000296840F951FE90199838883828193817D
:101C60009B838A83F0E0E0E012968D919C9113971C
:101C70000097B9F52D913C911197CD010296820FF5
:101C8000931F20913302309134022817390739F617
:101C9000309751F51092360210923502B09334020B
:101CA000A0933302BCCFD383C28340815181840F80
:101CB000951FC817D90761F44E5F5F4F88819981DE
:101CC000480F591F518340838A819B81938382836C
:101CD0002115310509F0B0CFF0933602E0933502BB
:101CE0009ECFFD01DC01C0CF13821282D7CFB0E0BE
:101CF000A0E0EDE7FEE00C94D60B8C01009751F4C8
:101D0000CB010E94520D8C01C801CDB7DEB7E0E1D6
:101D10000C94F20BFC01E60FF71F9C0122503109D5
:101D2000E217F30708F49DC0D901CD91DC9111971A
:101D3000C617D70798F0C530D10530F3CE01049708
:101D40008617970708F3C61BD70B2297C193D19329
:101D50006D937C93CF010E94EE0DD6CF5B01AC1A40
:101D6000BD0A4C018C0E9D1EA0913502B091360229
:101D7000512C412CF12CE12C109731F5809133023C
:101D8000909134028815990509F05CC046165706F3
:101D900008F058C08091040190910501009741F42A
:101DA0008DB79EB74091080150910901841B950B96
:101DB000E817F90708F055C0F0933402E0933302B6
:101DC000F90171836083A0CF8D919C911197129638
:101DD0006C90129713967C901397A815B90559F536
:101DE0006C0142E0C40ED11CCA14DB0420F1AC012A
:101DF0004A195B09DA011296159780F062827382A4
:101E000051834083D9016D937C93E114F10471F007
:101E1000D7011396FC93EE93129776CF22968C0FF0
:101E20009D1FF90191838083F301EFCFF093360278
:101E3000E093350269CF4816590608F42C017D015C
:101E4000D3019ACFCB010E94520D7C01009749F03B
:101E5000AE01B8010E94340FC8010E94EE0D870147
:101E600053CF10E000E050CFFB01DC0102C0019035
:101E70000D9241505040D8F70895FC01819186178A
:101E800021F08823D9F7992708953197CF01089534
:101E9000FB01DC018D91019080190110D9F3990BA0
:101EA0000895FB01DC0101900D920020E1F70895F7
:041EB000F894FFCFD4
:101EB400A402A402000037028000000000005D01BB
:101EC4008700B400AA012501C30017016E616E00EA
:101ED400696E66006F7666002C000D0A00474F009D
:0C1EE400454E440050574D005350000084
:00000001FF
