:100000000C945D000C940F080C94E8070C94850088
:100010000C9485000C9485000C9485000C9485004C
:100020000C9485000C9485000C9485000C9485003C
:100030000C9485000C9436080C9485000C94850073
:100040000C9446070C9485000C94B6070C9490070A
:100050000C9485000C9485000C9485000C9485000C
:100060000C9485000C9485000000000024002700FB
:100070002A0000000000250028002B0004040404CE
:100080000404040402020202020203030303030342
:10009000010204081020408001020408102001021F
:1000A00004081020000000080002010000030407FB
:1000B00000000000000000005D0811241FBECFEF0B
:1000C000D8E0DEBFCDBF22E0A2E4B1E001C01D92C6
:1000D000AF30B207E1F711E0A0E0B1E0E8E2FCE107
:1000E00002C005900D92A234B107D9F710E0CDE51A
:1000F000D0E004C02197FE010E94060CCC35D10748
:10010000C9F70E94A2080C94120E0C940000609192
:10011000520170915301809154019091550120E05A
:1001200030E040E85FE30E94CD0A60935201709393
:100130005301809354019093550108958230C8F47F
:10014000E82FF0E0EE0FFF1FE050FF4F27E830E010
:1001500031832083813039F08091690083608093FE
:100160006900E89A0895809169008C608093690025
:10017000E99A0895AF92BF92CF92DF92EF92FF92E9
:100180000F931F93CF93DF936C017B018B01040FBF
:10019000151FEB015E01AE18BF08C017D10759F05B
:1001A0006991D601ED91FC910190F081E02DC6019D
:1001B0000995892B79F7C501DF91CF911F910F9197
:1001C000FF90EF90DF90CF90BF90AF900895FC012B
:1001D000538D448D252F30E0842F90E0821B930BAC
:1001E000541710F0CF96089501970895FC01918D52
:1001F000828D981761F0A28DAE0FBF2FB11D5D9655
:100200008C91928D9F5F9F73928F90E008958FEFF6
:100210009FEF08952FB7F894809162019091630148
:10022000A0916401B09165012FBF80936E019093FE
:100230006F01A0937001B093710186E691E00E9476
:10024000F60097FF26C02FB7F89480916201909135
:100250006301A0916401B09165012FBF40916E01CF
:1002600050916F016091700170917101841B950B29
:10027000A60BB70B40916A0150916B0160916C0124
:1002800070916D0184179507A607B707B0F28FEF3D
:100290009FEF0895FC01918D828D981731F0828D2A
:1002A000E80FF11D858D90E008958FEF9FEF089581
:1002B000FC01918D228D892F90E0805C9F4F821BE5
:1002C00091098F739927089586E691E00E9458015D
:1002D00021E0892B09F420E0822F0895FC01A48DF0
:1002E000A80FB92FB11DA35ABF4F2C91848D90E058
:1002F00001968F739927848FA689B7892C93A0893B
:10030000B1898C91837080648C93938D848D9813C4
:1003100006C00288F389E02D80818F7D8083089557
:10032000EF92FF920F931F93CF93DF93EC0181E045
:10033000888F9B8D8C8D98131AC0E889F9898081EC
:1003400085FF15C09FB7F894EE89FF896083E8891F
:10035000F98980818370806480839FBF81E090E011
:10036000DF91CF911F910F91FF90EF900895F62E9E
:100370000B8D10E00F5F1F4F0F731127E02E8C8D38
:100380008E110CC00FB607FCFACFE889F98980817D
:1003900085FFF5CFCE010E946E01F1CFEB8DEC0F02
:1003A000FD2FF11DE35AFF4FF0829FB7F8940B8F9A
:1003B000EA89FB8980818062CFCFCF93DF93EC0104
:1003C000888D8823B9F0AA89BB89E889F9898C913D
:1003D00085FD03C0808186FD0DC00FB607FCF7CFF9
:1003E0008C9185FFF2CF808185FFEDCFCE010E94F9
:1003F0006E01E9CFDF91CF91089590E0FC01EC55BB
:10040000FF4F2491FC01E057FF4F3491FC01E45869
:10041000FF4FE491EE23C9F0222339F0233001F19C
:10042000A8F4213019F1223029F1F0E0EE0FFF1F7E
:10043000EE58FF4FA591B4918FB7F894EC916111EC
:1004400026C030953E233C938FBF08952730A9F0F6
:100450002830C9F0243049F7809180008F7D03C097
:10046000809180008F7780938000DFCF84B58F7775
:1004700084BDDBCF84B58F7DFBCF8091B0008F77BB
:100480008093B000D2CF8091B0008F7DF9CF3E2B0A
:10049000DACFCF93DF9390E0FC01E057FF4F249138
:1004A00084589F4FFC0184918823D1F090E0880FFD
:1004B000991FFC01E859FF4FA591B491FC01EE583A
:1004C000FF4FC591D49161110EC09FB7F8948C91E4
:1004D000E22FE0958E238C932881E223E8839FBF4F
:1004E000DF91CF9108958FB7F894EC91E22BEC93C4
:1004F0008FBFF6CF1F93CF93DF93182FEB0161E0EF
:100500000E944902209739F460E0812FDF91CF915A
:100510001F910C94FD01CF3FD10511F461E0F5CF9F
:10052000E12FF0E0EC55FF4FE491E33031F140F47E
:10053000E130B1F0E230E1F0C038D1057CF7E4CF32
:10054000E73029F1E83059F1E430B1F780918000CB
:10055000806280938000D0938B00C0938A0004C097
:1005600084B5806884BDC7BDDF91CF911F91089588
:1005700084B5806284BDC8BDF7CF8091800080685B
:1005800080938000D0938900C0938800EDCF809144
:10059000B00080688093B000C093B300E5CF809135
:1005A000B00080628093B000C093B400DDCF823091
:1005B00068F4E82FF0E0813051F0E898EE0FFF1F6B
:1005C000E050FF4F89EE92E0918380830895E9988F
:1005D000F5CF0895FC0101900020E9F73197AF01B4
:1005E000481B590BBC0186E691E00C94BA008F922F
:1005F0009F92AF92BF920F931F93CF93DF93CDB78C
:10060000DEB7A1970FB6F894DEBF0FBECDBF19A21B
:10061000423008F44AE08E010F5D1F4F842E912C6A
:10062000B12CA12CA50194010E94E40BE62FB90185
:10063000CA01EA30F4F4E05DD801EE938D01232B7A
:10064000242B252B79F790E080E0109719F0CD014D
:100650000E94EA02A1960FB6F894DEBF0FBECDBF8E
:10066000DF91CF911F910F91BF90AF909F908F908E
:100670000895E95CE1CF4F925F926F927F928F92E3
:100680009F92AF92BF92CF92DF92EF92FF920F9321
:100690001F93CF936B017C01742EAC019B010E94D0
:1006A000DF0B882399F08CE191E0CF911F910F919E
:1006B000FF90EF90DF90CF90BF90AF909F908F9082
:1006C0007F906F905F904F900C94EA024601570123
:1006D000E894B7F82FEF3FEF4FE75FE7C501B401AC
:1006E0000E94DF0B81110DC02FEF3FEF4FE75FE757
:1006F000C501B4010E94710918161CF480E291E052
:10070000D4CF2FEF3FEF4FE75FE4C701B6010E9460
:10071000DA0B18161CF484E291E0C7CF2FEF3FEFFD
:100720004FE75FECC701B6010E94710987FDF3CF67
:1007300020E030E0A901C701B6010E94710910E074
:1007400000E087FF0AC06DE286E691E00E9490011A
:100750008C01F7FAF094F7F8F094C0E060E070E0F4
:1007600080E09FE37C1641F020E030E040E251E47D
:100770000E94390BCF5FF6CFA70196010E94CD0AE8
:100780002B013C010E94AB0B4B015C014AE00E9433
:10079000F7027C01E00EF11ECC23C1F1C501B401CA
:1007A0000E9476099B01AC01C301B2010E94CC0AF0
:1007B0004B015C016EE286E691E00E949001E80E3A
:1007C000F91EC15018F120E030E040E251E4C501CB
:1007D000B4010E94D7092B013C010E94AB0B4B01D5
:1007E000B12CA12C4AE0C501B4010E94F702E80E29
:1007F000F91EC501B4010E9476099B01AC01C30139
:10080000B2010E94CC0A4B015C01DBCFC701CF9142
:100810001F910F91FF90EF90DF90CF90BF90AF901E
:100820009F908F907F906F905F904F900895CF92A0
:10083000DF92EF92FF92F894609152017091530110
:1008400080915401909155012DEC3CEC4CEC5DE312
:100850000E94390B20E030E048E453E40E94390B59
:1008600020E030E040E752E40E94D70960934E0157
:1008700070934F01809350019093510160914A0110
:1008800070914B0180914C0190914D0142E00E948A
:100890003B0388E291E00E94EA02C0905601D090AA
:1008A00057010D2C000CEE08FF084AE0C701B60105
:1008B000F7FE0DC06DE286E691E00E94900166278A
:1008C0007727CB016C197D098E099F094AE00E94A8
:1008D000F70288E291E00E94EA0260914E01709175
:1008E0004F01809150019091510142E00E943B03E1
:1008F0008AE291E00E94EA021092520110925301A2
:100900001092540110925501C0904601D0904701B9
:10091000E0904801F09049012091070230910802CF
:100920004091090250910A02C701B6010E94710963
:1009300081117EC0809156019091570118161906B9
:100940000CF06DC0109257011092560170E060E0FB
:1009500085E00E947A02109246011092470110929F
:10096000480110924901C0904201D0904301E090AB
:100970004401F0904501209103023091040240911E
:10098000050250910602C701B6010E94DA0B87FDED
:1009900060C070E060E085E00E947A02109246013B
:1009A0001092470110924801109249011092520191
:1009B000109253011092540110925501109242016D
:1009C00010924301109244011092450110924A0185
:1009D00010924B0110924C0110924D0110926F0039
:1009E00080E00E94D7022DEC3CEC4CEC5DE3609182
:1009F0004A0170914B0180914C0190914D010E94F0
:100A0000CD0A60934A0170934B0180934C019093FF
:100A10004D017894FF90EF90DF90CF90089586E994
:100A200090E0909357018093560166E970E090CF73
:100A300020E030E040E85FE3C701B6010E94CD0A44
:100A40006093460170934701809348019093490158
:100A50008ACF20E030E040E85FE3C701B6010E94A2
:100A6000CD0A6093420170934301809344019093B7
:100A70004501B9CFFC0124813581232B39F421E0D4
:100A8000FB018081882349F020E007C080819181AB
:100A90000E94020E21E0892BB9F7822F08950F934F
:100AA0001F93CF93DF93EC0188819981009759F0D0
:100AB0002A813B812617370730F081E0DF91CF9103
:100AC0001F910F9108958B016F5F7F4F0E94310D31
:100AD000009759F0998388831B830A832C813D8179
:100AE000232B59F7FC011082E8CF80E0E7CFCF93AA
:100AF000DF93EC0188819981009711F00E94A80C86
:100B0000198218821D821C821B821A82DF91CF916A
:100B10000895CF93DF93EC0170E060E00E944F05F1
:100B2000811105C0CE01DF91CF910C9477051D8214
:100B30001C826CE271E088819981DF91CF910C94E5
:100B40000B0E9F92AF92BF92CF92DF92EF92FF92E5
:100B50000F931F93CF93DF93EC016B015A0179013F
:100B60002417350720F48B2D5901E42EF82E198215
:100B700018821B821A821D821C82CE010E94890566
:100B8000D60114960D911C91A016B10658F5E016E9
:100B9000F10608F48701D601ED91FC911197E00F61
:100BA000F11F90801082ED90FC90EA0CFB1CE11488
:100BB000F10471F0F70101900020E9F731975F012E
:100BC000AE18BF08B501CE010E944F05811117C0B4
:100BD000CE010E947705F60180819181080F191FCF
:100BE000D8019C92CE01DF91CF911F910F91FF9080
:100BF000EF90DF90CF90BF90AF909F900895BD820F
:100C0000AC82B701888199810E940B0EE4CFFC0170
:100C100080819181009711F00C94A80C0895EF92B7
:100C2000FF920F931F93CF93DF93CDB7DEB76297F9
:100C30000FB6F894DEBF0FBECDBF1A8219821C8298
:100C40001B821E821D82CE0101960E9489050E9490
:100C50000A010D811E8197FD1CC08A309105C9F0E3
:100C60008F8318860F5F1F4FB801CE0101960E9437
:100C70004F05882361F329813A818D819E81BE01D0
:100C8000695F7F4F820F931F0E940B0E1E830D839F
:100C9000DECF012B61F009811A816CE270E0C8019E
:100CA0000E94F70D9C01201B310B892B11F42FEFB3
:100CB0003FEF50E040E0BE016F5F7F4FCE010796EF
:100CC0000E94A1050D811E810115110561F0E980C9
:100CD000FA806CE270E0C7010E94F70DAC014E197A
:100CE0005F09892B11F44FEF5FEF4F5F5F4F980162
:100CF000BE016F5F7F4FCE010D960E94A10586E673
:100D000091E00E94DD016DE271E0CE0107960E9444
:100D10003A05882309F180E18093810010928000D8
:100D200083E080935A0184ED90E39093590180937E
:100D30005801909387008093860083E1809381001F
:100D400087E194E090935C0180935B0181E0809364
:100D50006F0080E00E949E0060E371E0CE01079684
:100D60000E943A05882351F070E060E085E00E941F
:100D70007A0210926F0080E00E94D70264E371E073
:100D8000CE0107960E943A05882371F08D859E85D5
:100D9000009709F467C00E9435097093570160936A
:100DA000560185E00E947A0268E371E0CE01079661
:100DB0000E943A05882379F08D859E85009709F475
:100DC00055C00E9435096115710509F053C061E0F5
:100DD00087E00E94FD016CE371E0CE0107960E945E
:100DE0003A05882331F180E18093810010928000E0
:100DF00083E080935A0184ED90E3909359018093AE
:100E00005801909387008093860083E1809381004E
:100E100087E194E090935C0180935B0181E0809393
:100E20006F0080E00E949E0070E060E085E00E941C
:100E30007A02CE010D960E940706CE0107960E9407
:100E40000706CE0101960E94070662960FB6F89437
:100E5000DEBF0FBECDBFDF91CF911F910F91FF90ED
:100E6000EF90089560E070E0CB0197CF60E070E014
:100E7000CB01A9CF6130710509F0ADCF60E0A8CFFB
:100E80000E94640181110C940F0608951F920F9225
:100E90000FB60F9211242F933F938F939F93AF938D
:100EA000BF938091620190916301A0916401B09120
:100EB00065013091610123E0230F2D3758F501962C
:100EC000A11DB11D20936101809362019093630184
:100ED000A0936401B093650180915D0190915E01E2
:100EE000A0915F01B09160010196A11DB11D809399
:100EF0005D0190935E01A0935F01B0936001BF918B
:100F0000AF919F918F913F912F910F900FBE0F90B6
:100F10001F90189526E8230F0296A11DB11DD2CF70
:100F20001F920F920FB60F9211242F933F934F935E
:100F30005F936F937F938F939F93AF93BF93EF9341
:100F4000FF9386E691E00E946E01FF91EF91BF91C1
:100F5000AF919F918F917F916F915F914F913F9151
:100F60002F910F900FBE0F901F9018951F920F9208
:100F70000FB60F9211242F938F939F93EF93FF93AC
:100F8000E0917601F09177018081E0917C01F09110
:100F90007D0182FD1BC0908180917F018F5F8F73E7
:100FA00020918001821741F0E0917F01F0E0EA5941
:100FB000FE4F958F80937F01FF91EF919F918F91CD
:100FC0002F910F900FBE0F901F9018958081F4CF36
:100FD0001F920F920FB60F9211242F933F934F93AE
:100FE0005F936F937F938F939F93AF93BF93EF9391
:100FF000FF93E0910201F09103010995FF91EF91B8
:10100000BF91AF919F918F917F916F915F914F9120
:101010003F912F910F900FBE0F901F9018951F9228
:101020000F920FB60F9211242F933F934F935F931C
:101030006F937F938F939F93AF93BF93EF93FF93A0
:10104000E0910001F09101010995FF91EF91BF91AD
:10105000AF919F918F917F916F915F914F913F9150
:101060002F910F900FBE0F901F9018951F920F9207
:101070000FB60F9211242F933F934F935F936F936B
:101080007F938F939F93AF93BF93EF93FF93E091E1
:101090005B01F0915C010995FF91EF91BF91AF91D8
:1010A0009F918F917F916F915F914F913F912F9180
:1010B0000F900FBE0F901F901895E6E6F1E0138297
:1010C000128288EE93E0A0E0B0E084839583A6834B
:1010D000B7838EE091E09183808385EC90E09587E3
:1010E000848784EC90E09787868780EC90E0918BF2
:1010F000808B81EC90E0938B828B82EC90E0958BDF
:10110000848B86EC90E0978B868B118E128E138EDB
:10111000148E80E090E0A8E4B2E4809307029093FC
:101120000802A0930902B0930A0280E090E8A9E0C7
:10113000B4E48093030290930402A0930502B09359
:1011400006020895789484B5826084BD84B5816078
:1011500084BD85B5826085BD85B5816085BD809182
:101160006E00816080936E001092810080918100FA
:1011700082608093810080918100816080938100F2
:10118000809180008160809380008091B1008460B4
:101190008093B1008091B00081608093B000809115
:1011A0007A00846080937A0080917A0082608093D4
:1011B0007A0080917A00816080937A0080917A0031
:1011C000806880937A001092C100E0917601F091DE
:1011D000770182E08083E0917201F09173011082C7
:1011E000E0917401F091750180E1808310927E019D
:1011F000E0917A01F0917B0186E08083E0917801B3
:10120000F0917901808180618083E0917801F09193
:101210007901808188608083E0917801F091790183
:10122000808180688083E0917801F09179018081EC
:101230008F7D808361E085E00E94490261E087E064
:101240000E94490260E085E00E94FD0160E087E0C5
:101250000E94FD0160E082E00E9449020E94640158
:101260008823E1F30E940F06F9CF1F93FC01992711
:101270008827BC01E89411911032E9F3193010F07D
:101280001E30C8F31B3251F01D3249F4689406C079
:101290000E945C09610F711D811D911D11911053F8
:1012A0001A30B0F33EF490958095709561957F4F1C
:1012B0008F4F9F4F1F910895592F482F372F262F5B
:1012C000660F771F881F991F660F771F881F991F4A
:1012D000620F731F841F951F660F771F881F991F4A
:1012E00008950E94B30908F481E00895E89409C0C4
:1012F00097FB3EF490958095709561957F4F8F4F49
:101300009F4F9923A9F0F92F96E9BB279395F6955E
:10131000879577956795B795F111F8CFFAF4BB0FDC
:1013200011F460FF1BC06F5F7F4F8F4F9F4F16C040
:10133000882311F096E911C0772321F09EE8872FCA
:10134000762F05C0662371F096E8862F70E060E086
:101350002AF09A95660F771F881FDAF7880F9695FF
:10136000879597F90895990F0008550FAA0BE0E8A3
:10137000FEEF16161706E807F907C0F01216130657
:10138000E407F50798F0621B730B840B950B39F497
:101390000A2661F0232B242B252B21F408950A26FD
:1013A00009F4A140A6958FEF811D811D08950E942B
:1013B000EA090C945B0A0E944D0A38F00E94540A14
:1013C00020F0952311F00C94440A0C944A0A11243D
:1013D0000C948F0A0E946C0A70F3959FC1F3950FCD
:1013E00050E0551F629FF001729FBB27F00DB11DA9
:1013F000639FAA27F00DB11DAA1F649F6627B00D39
:10140000A11D661F829F2227B00DA11D621F739F21
:10141000B00DA11D621F839FA00D611D221F749F2F
:101420003327A00D611D231F849F600D211D822F76
:10143000762F6A2F11249F5750409AF0F1F088239D
:101440004AF0EE0FFF1FBB1F661F771F881F9150CA
:101450005040A9F79E3F510580F00C94440A0C942B
:101460008F0A5F3FE4F3983ED4F3869577956795AE
:10147000B795F795E7959F5FC1F7FE2B880F911DF4
:101480009695879597F9089597F99F6780E870E09A
:1014900060E008959FEF80EC089500240A941616EA
:1014A000170618060906089500240A941216130652
:1014B000140605060895092E0394000C11F48823E0
:1014C00052F0BB0F40F4BF2B11F460FF04C06F5FFC
:1014D0007F4F8F4F9F4F089557FD9058440F551FD2
:1014E00059F05F3F71F04795880F97FB991F61F0A6
:1014F0009F3F79F087950895121613061406551F1D
:10150000F2CF4695F1DF08C0161617061806991F88
:10151000F1CF86957105610508940895E894BB277D
:1015200066277727CB0197F908952F923F924F9224
:101530005F926F927F928F929F92AF92BF92CF9263
:10154000DF92EF92FF920F931F93CF93DF93CDB76C
:10155000DEB7CA1BDB0B0FB6F894DEBF0FBECDBFE4
:1015600009942A88398848885F846E847D848C84B5
:101570009B84AA84B984C884DF80EE80FD800C81BE
:101580001B81AA81B981CE0FD11D0FB6F894DEBFA1
:101590000FBECDBFED0108955058BB27AA270E946A
:1015A000E40A0C945B0A0E944D0A38F00E94540A27
:1015B00020F039F49F3F19F426F40C944A0A0EF4F3
:1015C000E095E7FB0C94440AE92F0E946C0A58F35B
:1015D000BA17620773078407950720F079F4A6F518
:1015E0000C948E0A0EF4E0950B2EBA2FA02D0B0151
:1015F000B90190010C01CA01A0011124FF27591B58
:1016000099F0593F50F4503E68F11A16F040A22F5D
:10161000232F342F4427585FF3CF469537952795CE
:10162000A795F0405395C9F77EF41F16BA0B620BCD
:10163000730B840BBAF09150A1F0FF0FBB1F661F14
:10164000771F881FC2F70EC0BA0F621F731F841F57
:1016500048F4879577956795B795F7959E3F08F07D
:10166000B0CF9395880F08F09927EE0F979587953F
:1016700008950E944D0B0C945B0A0E94540A58F086
:101680000E944D0A40F029F45F3F29F00C94440A6F
:1016900051110C948F0A0C944A0A0E946C0A68F348
:1016A0009923B1F3552391F3951B550BBB27AA271B
:1016B00062177307840738F09F5F5F4F220F331F55
:1016C000441FAA1FA9F335D00E2E3AF0E0E832D01D
:1016D00091505040E695001CCAF72BD0FE2F29D020
:1016E000660F771F881FBB1F261737074807AB07F2
:1016F000B0E809F0BB0B802DBF01FF2793585F4F67
:101700003AF09E3F510578F00C94440A0C948F0AED
:101710005F3FE4F3983ED4F3869577956795B79548
:10172000F7959F5FC9F7880F911D9695879597F953
:101730000895E1E0660F771F881FBB1F62177307CC
:101740008407BA0720F0621B730B840BBA0BEE1FE1
:1017500088F7E09508950E94740A88F09F5798F0E2
:10176000B92F9927B751B0F0E1F0660F771F881FA6
:10177000991F1AF0BA95C9F714C0B13091F00E94C0
:101780008E0AB1E008950C948E0A672F782F88276F
:10179000B85F39F0B93FCCF3869577956795B395E7
:1017A000D9F73EF490958095709561957F4F8F4F56
:1017B0009F4F08950E94B30908F48FEF08950E9487
:1017C000B309880B990B0895A1E21A2EAA1BBB1B23
:1017D000FD010DC0AA1FBB1FEE1FFF1FA217B307FD
:1017E000E407F50720F0A21BB30BE40BF50B661F13
:1017F000771F881F991F1A9469F7609570958095D7
:1018000090959B01AC01BD01CF010895EE0FFF1F24
:101810000590F491E02D09940F931F93CF93DF93DC
:101820008230910510F482E090E0E0910D02F09199
:101830000E0230E020E0B0E0A0E0309799F42115EE
:10184000310509F44AC0281B390B24303105D8F57D
:101850008A819B816115710589F1FB0193838283E4
:10186000FE0111C04081518102811381481759073F
:10187000E0F04817590799F4109761F012960C930D
:10188000129713961C933296CF01DF91CF911F913F
:101890000F91089500930D0210930E02F4CF2115BD
:1018A000310551F04217530738F0A901DB019A01C5
:1018B000BD01DF01F801C1CFEF01F9CF90930E0216
:1018C00080930D02CDCFFE01E20FF31F8193919320
:1018D0002250310939832883D7CF20910B023091D0
:1018E0000C02232B41F42091060130910701309323
:1018F0000C0220930B022091040130910501211567
:10190000310541F42DB73EB74091080150910901CE
:10191000241B350BE0910B02F0910C02E217F30748
:10192000A0F42E1B3F0B2817390778F0AC014E5F4F
:101930005F4F2417350748F04E0F5F1F50930C027E
:1019400040930B02819391939FCFF0E0E0E09CCF16
:10195000CF93DF930097E9F0FC0132971382128254
:10196000A0910D02B0910E02ED0130E020E0109741
:10197000A1F420813181820F931F20910B023091BD
:101980000C022817390709F061C0F0930C02E093AC
:101990000B02DF91CF910895EA01CE17DF07E8F53A
:1019A0004A815B819E0141155105B1F7E901FB8335
:1019B000EA8349915991C40FD51FEC17FD0761F4D3
:1019C000808191810296840F951FE9019983888314
:1019D000828193819B838A83F0E0E0E012968D916F
:1019E0009C9113970097B9F52D913C911197CD01DA
:1019F0000296820F931F20910B0230910C02281740
:101A0000390739F6309751F510920E0210920D02F7
:101A1000B0930C02A0930B02BCCFD383C28340814E
:101A20005181840F951FC817D90761F44E5F5F4F2E
:101A300088819981480F591F518340838A819B81F6
:101A4000938382832115310509F0B0CFF0930E0204
:101A5000E0930D029ECFFD01DC01C0CF1382128204
:101A6000D7CFB0E0A0E0E7E3FDE00C94970A8C014B
:101A7000009751F4CB010E940C0C8C01C801CDB72A
:101A8000DEB7E0E10C94B30AFC01E60FF71F9C01FE
:101A900022503109E217F30708F49DC0D901CD9116
:101AA000DC911197C617D70798F0C530D10530F3F0
:101AB000CE0104978617970708F3C61BD70B22970A
:101AC000C193D1936D937C93CF010E94A80CD6CF84
:101AD0005B01AC1ABD0A4C018C0E9D1EA0910D023B
:101AE000B0910E02512C412CF12CE12C109731F5C4
:101AF00080910B0290910C028815990509F05CC049
:101B00004616570608F058C08091040190910501CF
:101B1000009741F48DB79EB740910801509109019B
:101B2000841B950BE817F90708F055C0F0930C02D9
:101B3000E0930B02F90171836083A0CF8D919C919A
:101B4000119712966C90129713967C901397A81584
:101B5000B90559F56C0142E0C40ED11CCA14DB046E
:101B600020F1AC014A195B09DA011296159780F051
:101B70006282738251834083D9016D937C93E11417
:101B8000F10471F0D7011396FC93EE93129776CF80
:101B900022968C0F9D1FF90191838083F301EFCF73
:101BA000F0930E02E0930D0269CF4816590608F42F
:101BB0002C017D01D3019ACFCB010E940C0C7C013A
:101BC000009749F0AE01B8010E94EE0DC8010E94D5
:101BD000A80C870153CF10E000E050CFFB01DC01DF
:101BE00002C001900D9241505040D8F70895FC0179
:101BF0008191861721F08823D9F799270895319785
:101C0000CF010895FB01DC018D9101908019011035
:101C1000D9F3990B0895FB01DC0101900D9200208E
:081C2000E1F70895F894FFCFED
:101C2800E902E90200000F028000000000009001B4
:101C3800BA00E700DD015801F6004A016E616E0046
:101C4800696E66006F7666002C000D0A00474F002B
:101C5800454E440050574D0044495200474F4C4FA1
:021C6800470033
:00000001FF
